{
  "_format": "hh-sol-artifact-1",
  "contractName": "Voting",
  "sourceName": "contracts/Voting.sol",
  "abi": [
    {
      "inputs": [],
      "stateMutability": "nonpayable",
      "type": "constructor"
    },
    {
      "inputs": [
        {
          "internalType": "string",
          "name": "_name",
          "type": "string"
        },
        {
          "internalType": "string",
          "name": "_imageCID",
          "type": "string"
        }
      ],
      "name": "addCandidate",
      "outputs": [],
      "stateMutability": "nonpayable",
      "type": "function"
    },
    {
      "inputs": [
        {
          "internalType": "uint256",
          "name": "",
          "type": "uint256"
        }
      ],
      "name": "candidates",
      "outputs": [
        {
          "internalType": "string",
          "name": "name",
          "type": "string"
        },
        {
          "internalType": "string",
          "name": "imageCID",
          "type": "string"
        },
        {
          "internalType": "uint256",
          "name": "voteCount",
          "type": "uint256"
        }
      ],
      "stateMutability": "view",
      "type": "function"
    },
    {
      "inputs": [],
      "name": "candidatesCount",
      "outputs": [
        {
          "internalType": "uint256",
          "name": "",
          "type": "uint256"
        }
      ],
      "stateMutability": "view",
      "type": "function"
    },
    {
      "inputs": [
        {
          "internalType": "address",
          "name": "",
          "type": "address"
        }
      ],
      "name": "hasVoted",
      "outputs": [
        {
          "internalType": "bool",
          "name": "",
          "type": "bool"
        }
      ],
      "stateMutability": "view",
      "type": "function"
    },
    {
      "inputs": [],
      "name": "owner",
      "outputs": [
        {
          "internalType": "address",
          "name": "",
          "type": "address"
        }
      ],
      "stateMutability": "view",
      "type": "function"
    },
    {
      "inputs": [
        {
          "internalType": "uint256",
          "name": "_candidateId",
          "type": "uint256"
        }
      ],
      "name": "vote",
      "outputs": [],
      "stateMutability": "nonpayable",
      "type": "function"
    }
  ],
  "bytecode": "0x6080604052348015600f57600080fd5b5033600360006101000a81548173ffffffffffffffffffffffffffffffffffffffff021916908373ffffffffffffffffffffffffffffffffffffffff160217905550610e31806100606000396000f3fe608060405234801561001057600080fd5b50600436106100625760003560e01c80630121b93f1461006757806309eef43e1461008357806326541b56146100b35780632d35a8a2146100cf5780633477ee2e146100ed5780638da5cb5b1461011f575b600080fd5b610081600480360381019061007c9190610578565b61013d565b005b61009d60048036038101906100989190610603565b610293565b6040516100aa919061064b565b60405180910390f35b6100cd60048036038101906100c891906107ac565b6102b3565b005b6100d76103c8565b6040516100e49190610833565b60405180910390f35b61010760048036038101906101029190610578565b6103ce565b604051610116939291906108cd565b60405180910390f35b610127610508565b6040516101349190610921565b60405180910390f35b600160003373ffffffffffffffffffffffffffffffffffffffff1673ffffffffffffffffffffffffffffffffffffffff16815260200190815260200160002060009054906101000a900460ff16156101ca576040517f08c379a00000000000000000000000000000000000000000000000000000000081526004016101c190610988565b60405180910390fd5b600254811061020e576040517f08c379a0000000000000000000000000000000000000000000000000000000008152600401610205906109f4565b60405180910390fd5b60018060003373ffffffffffffffffffffffffffffffffffffffff1673ffffffffffffffffffffffffffffffffffffffff16815260200190815260200160002060006101000a81548160ff021916908315150217905550600080828152602001908152602001600020600201600081548092919061028b90610a43565b919050555050565b60016020528060005260406000206000915054906101000a900460ff1681565b600360009054906101000a900473ffffffffffffffffffffffffffffffffffffffff1673ffffffffffffffffffffffffffffffffffffffff163373ffffffffffffffffffffffffffffffffffffffff1614610343576040517f08c379a000000000000000000000000000000000000000000000000000000000815260040161033a90610afd565b60405180910390fd5b60405180606001604052808381526020018281526020016000815250600080600254815260200190815260200160002060008201518160000190816103889190610d29565b50602082015181600101908161039e9190610d29565b5060408201518160020155905050600260008154809291906103bf90610a43565b91905055505050565b60025481565b60006020528060005260406000206000915090508060000180546103f190610b4c565b80601f016020809104026020016040519081016040528092919081815260200182805461041d90610b4c565b801561046a5780601f1061043f5761010080835404028352916020019161046a565b820191906000526020600020905b81548152906001019060200180831161044d57829003601f168201915b50505050509080600101805461047f90610b4c565b80601f01602080910402602001604051908101604052809291908181526020018280546104ab90610b4c565b80156104f85780601f106104cd576101008083540402835291602001916104f8565b820191906000526020600020905b8154815290600101906020018083116104db57829003601f168201915b5050505050908060020154905083565b600360009054906101000a900473ffffffffffffffffffffffffffffffffffffffff1681565b6000604051905090565b600080fd5b600080fd5b6000819050919050565b61055581610542565b811461056057600080fd5b50565b6000813590506105728161054c565b92915050565b60006020828403121561058e5761058d610538565b5b600061059c84828501610563565b91505092915050565b600073ffffffffffffffffffffffffffffffffffffffff82169050919050565b60006105d0826105a5565b9050919050565b6105e0816105c5565b81146105eb57600080fd5b50565b6000813590506105fd816105d7565b92915050565b60006020828403121561061957610618610538565b5b6000610627848285016105ee565b91505092915050565b60008115159050919050565b61064581610630565b82525050565b6000602082019050610660600083018461063c565b92915050565b600080fd5b600080fd5b6000601f19601f8301169050919050565b7f4e487b7100000000000000000000000000000000000000000000000000000000600052604160045260246000fd5b6106b982610670565b810181811067ffffffffffffffff821117156106d8576106d7610681565b5b80604052505050565b60006106eb61052e565b90506106f782826106b0565b919050565b600067ffffffffffffffff82111561071757610716610681565b5b61072082610670565b9050602081019050919050565b82818337600083830152505050565b600061074f61074a846106fc565b6106e1565b90508281526020810184848401111561076b5761076a61066b565b5b61077684828561072d565b509392505050565b600082601f83011261079357610792610666565b5b81356107a384826020860161073c565b91505092915050565b600080604083850312156107c3576107c2610538565b5b600083013567ffffffffffffffff8111156107e1576107e061053d565b5b6107ed8582860161077e565b925050602083013567ffffffffffffffff81111561080e5761080d61053d565b5b61081a8582860161077e565b9150509250929050565b61082d81610542565b82525050565b60006020820190506108486000830184610824565b92915050565b600081519050919050565b600082825260208201905092915050565b60005b8381101561088857808201518184015260208101905061086d565b60008484015250505050565b600061089f8261084e565b6108a98185610859565b93506108b981856020860161086a565b6108c281610670565b840191505092915050565b600060608201905081810360008301526108e78186610894565b905081810360208301526108fb8185610894565b905061090a6040830184610824565b949350505050565b61091b816105c5565b82525050565b60006020820190506109366000830184610912565b92915050565b7f596f75206861766520616c726561647920766f74656400000000000000000000600082015250565b6000610972601683610859565b915061097d8261093c565b602082019050919050565b600060208201905081810360008301526109a181610965565b9050919050565b7f496e76616c69642063616e646964617465204944000000000000000000000000600082015250565b60006109de601483610859565b91506109e9826109a8565b602082019050919050565b60006020820190508181036000830152610a0d816109d1565b9050919050565b7f4e487b7100000000000000000000000000000000000000000000000000000000600052601160045260246000fd5b6000610a4e82610542565b91507fffffffffffffffffffffffffffffffffffffffffffffffffffffffffffffffff8203610a8057610a7f610a14565b5b600182019050919050565b7f4f6e6c79206f776e65722063616e2063616c6c20746869732066756e6374696f60008201527f6e00000000000000000000000000000000000000000000000000000000000000602082015250565b6000610ae7602183610859565b9150610af282610a8b565b604082019050919050565b60006020820190508181036000830152610b1681610ada565b9050919050565b7f4e487b7100000000000000000000000000000000000000000000000000000000600052602260045260246000fd5b60006002820490506001821680610b6457607f821691505b602082108103610b7757610b76610b1d565b5b50919050565b60008190508160005260206000209050919050565b60006020601f8301049050919050565b600082821b905092915050565b600060088302610bdf7fffffffffffffffffffffffffffffffffffffffffffffffffffffffffffffffff82610ba2565b610be98683610ba2565b95508019841693508086168417925050509392505050565b6000819050919050565b6000610c26610c21610c1c84610542565b610c01565b610542565b9050919050565b6000819050919050565b610c4083610c0b565b610c54610c4c82610c2d565b848454610baf565b825550505050565b600090565b610c69610c5c565b610c74818484610c37565b505050565b5b81811015610c9857610c8d600082610c61565b600181019050610c7a565b5050565b601f821115610cdd57610cae81610b7d565b610cb784610b92565b81016020851015610cc6578190505b610cda610cd285610b92565b830182610c79565b50505b505050565b600082821c905092915050565b6000610d0060001984600802610ce2565b1980831691505092915050565b6000610d198383610cef565b9150826002028217905092915050565b610d328261084e565b67ffffffffffffffff811115610d4b57610d4a610681565b5b610d558254610b4c565b610d60828285610c9c565b600060209050601f831160018114610d935760008415610d81578287015190505b610d8b8582610d0d565b865550610df3565b601f198416610da186610b7d565b60005b82811015610dc957848901518255600182019150602085019450602081019050610da4565b86831015610de65784890151610de2601f891682610cef565b8355505b6001600288020188555050505b50505050505056fea2646970667358221220f76541871ba8311d7187115015ee8e2b7c53d0fd91e27402866dd10beed6056864736f6c634300081c0033",
  "linkReferences": {},
  "deployedLinkReferences": {}
}